:1000000012C019C018C017C016C015C014C013C044
:1000100012C02CC110C00FC00EC00DC00CC00BC050
:100020000AC009C008C011241FBECFE5D4E0DEBF5E
:10003000CDBF09D06DC16BC148692C20737472614A
:100040006E6765722C000AD1FCD05BD123D1503091
:1000500009F41BD11DD16CD021D0FFCF089541D11F
:1000600032D1ABD06F70DBD0D2D0BFD0A8D0A7D068
:1000700045D1089536D127D1A0D06F70B6D09FD08A
:10008000C6D09DD03BD108952CD11DD196D06F7094
:10009000ACD095D0B8D093D031D1089503D0DFDF64
:1000A0000ED008951ED10FD1F0E0E8E31AD0C89524
:1000B000102D24D0E3957A95D1F720D1089511D150
:1000C00002D177277FBB7EBBE099FECFE09A00008C
:1000D0001DB3103021F012D073957EBBF5CF0ED139
:1000E0000895FF93EF937727C895102D103019F0DE
:1000F0007395E395F9CFEF91FF9108955ED07BD092
:100100006F7017FD8CD016FD86D015FD80D014FDC4
:100110007AD0CCD054D06F70129517FD80D016FDD8
:100120007AD015FD74D014FD6ED0C0D048D008959B
:1001300088D087D0D6D0C7D082D065D068D069D0DB
:100140006CD053D0B3D03BD085D084D083D0AED048
:1001500036D07CD0ABD033D079D053D0A7D02FD0ED
:1001600075D055D0A3D02BD05AD04FD09FD027D008
:1001700024D053D09BD023D052D098D020D01DD0A3
:100180004CD094D01CD03FD091D019D016D039D0BB
:100190008DD015D040D03BD089D011D00ED039D0E1
:1001A00034D084D00CD03BD036D031D02CD045D0F8
:1001B0007DD005D0A3D045D008954CD008953BD034
:1001C00075D0000000000000000033D06FD008950B
:1001D00034D087D078D06AD091D0089530D02DD047
:1001E00080D071D063D08AD008951BD01ED00895DE
:1001F00018D01DD0089517D018D0089514D017D056
:1002000008956F7E0895606108956F7D089560621E
:1002100008956F7B0895606408956F77089560680E
:1002200008956E7F0895616008956D7F08956260FE
:1002300008956B7F08956460089568600895677FEE
:10024000089504E107D00150E9F7089524E0203033
:10025000F1F7089528E22030F1F7089501E003BF97
:100260000BE902BF01E009BF78940895F8940F9359
:100270000FB70F930BE902BF21500F910FBF0F91E2
:10028000789418958F9A97980895FCDF979A089517
:10029000000008955FE725D016D00F3F29F400270E
:1002A0005150503009F0F7CF29D00895062F03B9E7
:1002B00004E806BF06B707FFFDCF01B1087F08328B
:1002C00009F0E3DF0895052F000F03B904E806BF26
:1002D00006B707FFFDCF01B1087F083109F00FEF26
:1002E000089504EA06BF06B707FFFDCF01B1087FF6
:1002F000083019F0003109F0C8DF089504E906BF9D
:1003000008950CE000B901B10C7F01B9089518956A
:04031000F894FFCF8F
:00000001FF
