:1000000012C019C018C017C016C015C014C013C044
:1000100012C024C110C00FC00EC00DC00CC00BC058
:100020000AC009C008C011241FBECFE5D4E0DEBF5E
:10003000CDBF02D065C163C109D1FBD05AD122D155
:10004000503009F41AD11CD16BD030D0FFCF0895B5
:1000500048692C20737472616E6765722C006D653F
:10006000206F7A666F72657374657200089531D17E
:1000700022D19BD06F70CBD0C2D0AFD098D097D0C8
:1000800035D1089526D117D190D06F70A6D08FD0DA
:10009000B6D08DD02BD108951CD10DD186D06F70E4
:1000A0009CD085D0A8D083D021D10895F0E0E0E5A0
:1000B00005D0DDDFF0E0EEE501D008950AD1FBD0F8
:1000C00008D0C895102D12D0E3957A95D1F70ED1AE
:1000D0000895FF93EF937727C895102D103019F0EE
:1000E0007395E395F9CFEF91FF9108955ED07BD0A2
:1000F0006F7017FD8CD016FD86D015FD80D014FDD5
:100100007AD0CCD054D06F70129517FD80D016FDE8
:100110007AD015FD74D014FD6ED0C0D048D00895AB
:1001200088D087D0D6D0C7D082D065D068D069D0EB
:100130006CD053D0B3D03BD085D084D083D0AED058
:1001400036D07CD0ABD033D079D053D0A7D02FD0FD
:1001500075D055D0A3D02BD05AD04FD09FD027D018
:1001600024D053D09BD023D052D098D020D01DD0B3
:100170004CD094D01CD03FD091D019D016D039D0CB
:100180008DD015D040D03BD089D011D00ED039D0F1
:1001900034D084D00CD03BD036D031D02CD045D008
:1001A0007DD005D0A3D045D008954CD008953BD044
:1001B00075D0000000000000000033D06FD008951B
:1001C00034D087D078D06AD091D0089530D02DD057
:1001D00080D071D063D08AD008951BD01ED00895EE
:1001E00018D01DD0089517D018D0089514D017D066
:1001F00008956F7E0895606108956F7D089560622F
:1002000008956F7B0895606408956F77089560681E
:1002100008956E7F0895616008956D7F089562600E
:1002200008956B7F08956460089568600895677FFE
:10023000089504E107D00150E9F7089524E0203043
:10024000F1F7089528E22030F1F7089501E003BFA7
:100250000BE902BF01E009BF78940895F8940F9369
:100260000FB70F930BE902BF21500F910FBF0F91F2
:10027000789418958F9A97980895FCDF979A089527
:10028000000008955FE725D016D00F3F29F400271E
:100290005150503009F0F7CF29D00895062F03B9F7
:1002A00004E806BF06B707FFFDCF01B1087F08329B
:1002B00009F0E3DF0895052F000F03B904E806BF36
:1002C00006B707FFFDCF01B1087F083109F00FEF36
:1002D000089504EA06BF06B707FFFDCF01B1087F06
:1002E000083019F0003109F0C8DF089504E906BFAD
:1002F00008950CE000B901B10C7F01B9089518957B
:04030000F894FFCF9F
:00000001FF
